{
  "contractName": "Adoption",
  "abi": [
    {
      "constant": false,
      "inputs": [
        {
          "name": "petId",
          "type": "uint256"
        }
      ],
      "name": "release",
      "outputs": [
        {
          "name": "",
          "type": "uint256"
        }
      ],
      "payable": false,
      "stateMutability": "nonpayable",
      "type": "function"
    },
    {
      "constant": true,
      "inputs": [],
      "name": "getAdopters",
      "outputs": [
        {
          "name": "",
          "type": "address[16]"
        }
      ],
      "payable": false,
      "stateMutability": "view",
      "type": "function"
    },
    {
      "constant": true,
      "inputs": [
        {
          "name": "",
          "type": "uint256"
        }
      ],
      "name": "adopters",
      "outputs": [
        {
          "name": "",
          "type": "address"
        }
      ],
      "payable": false,
      "stateMutability": "view",
      "type": "function"
    },
    {
      "constant": false,
      "inputs": [
        {
          "name": "petId",
          "type": "uint256"
        }
      ],
      "name": "adopt",
      "outputs": [
        {
          "name": "",
          "type": "uint256"
        }
      ],
      "payable": false,
      "stateMutability": "nonpayable",
      "type": "function"
    }
  ],
  "bytecode": "0x6060604052341561000f57600080fd5b6103948061001e6000396000f300606060405260043610610062576000357c0100000000000000000000000000000000000000000000000000000000900463ffffffff16806337bdc99b146100675780633de4eb171461009e57806343ae80d3146100ef5780638588b2c514610152575b600080fd5b341561007257600080fd5b6100886004808035906020019091905050610189565b6040518082815260200191505060405180910390f35b34156100a957600080fd5b6100b16101fe565b6040518082601060200280838360005b838110156100dc5780820151818401526020810190506100c1565b5050505090500191505060405180910390f35b34156100fa57600080fd5b610110600480803590602001909190505061027f565b604051808273ffffffffffffffffffffffffffffffffffffffff1673ffffffffffffffffffffffffffffffffffffffff16815260200191505060405180910390f35b341561015d57600080fd5b61017360048080359060200190919050506102b4565b6040518082815260200191505060405180910390f35b600080821015801561019c5750600f8211155b15156101a757600080fd5b600080836010811015156101b757fe5b0160006101000a81548173ffffffffffffffffffffffffffffffffffffffff021916908373ffffffffffffffffffffffffffffffffffffffff160217905550819050919050565b610206610329565b6000601080602002604051908101604052809291908260108015610275576020028201915b8160009054906101000a900473ffffffffffffffffffffffffffffffffffffffff1673ffffffffffffffffffffffffffffffffffffffff168152602001906001019080831161022b575b5050505050905090565b60008160108110151561028e57fe5b016000915054906101000a900473ffffffffffffffffffffffffffffffffffffffff1681565b60008082101580156102c75750600f8211155b15156102d257600080fd5b336000836010811015156102e257fe5b0160006101000a81548173ffffffffffffffffffffffffffffffffffffffff021916908373ffffffffffffffffffffffffffffffffffffffff160217905550819050919050565b610200604051908101604052806010905b600073ffffffffffffffffffffffffffffffffffffffff1681526020019060019003908161033a57905050905600a165627a7a72305820c425da300c1dce87ebdd3250f0b0864b46e00a051b1c12a5700779eb5883e76d0029",
  "source": "pragma solidity ^0.4.17;\r\n\r\ncontract Adoption {\r\n\r\n    address[16] public adopters;\r\n\r\n    function adopt(uint petId) public returns (uint) {\r\n        require(petId >=0 && petId <= 15);\r\n        adopters[petId] = msg.sender;\r\n        return petId;\r\n    }\r\n\r\n    function release(uint petId) public returns (uint) {\r\n        require(petId >=0 && petId <= 15);\r\n        adopters[petId] = 0x0000000000000000000000000000000000000000;\r\n        return petId;\r\n    }\r\n\r\n    function getAdopters() public view returns (address[16]) {\r\n        return adopters;\r\n    }\r\n\r\n}",
  "sourcePath": "C:\\Users\\Daniel Choi\\Documents\\Code\\Blockchain\\Truffle\\pet-shop-tutorial\\contracts\\Adoption.sol",
  "compiler": {
    "name": "solc",
    "version": "0.4.18+commit.9cf6e910.Emscripten.clang"
  },
  "schemaVersion": "1.0.1",
  "updatedAt": "2020-03-20T07:03:52.142Z"
}